:1000000000308A00B1280000831A0A289100030EEC
:1000100092000F2883129100030E920092140A0896
:1000200099008A018313910E040893000C08940030
:100030000D0895000E0896000F089700100898000C
:1000400083128B1E25280B193A28130884001408E4
:100050008C0015088D0016088E0017088F001808F0
:10006000900019088A00120E83008312110E921854
:1000700083160900EB3081009E0803194128061001
:10008000422806149E0A1E08153C031849289E01A2
:1000900006140B118A11252840306600B5288316F6
:1000A0000108C0398100EB30831281008B16B6281D
:1000B000061686148611861586138616B7288B17A2
:1000C000B8289F01A001861386126628861606307E
:1000D0008C008C0B69280000A0019F01A008031D63
:1000E00080281F080F3C031C80288617061B1A1443
:1000F000861303109A0D9B0D9F0A0319A00A6E2800
:10010000B928A101A201061686149F0DA00D9F0D0E
:10011000A00D9F0DA00D9F0DA00DF0309F05A20119
:10012000A101A208031DAE2821080C3C031CAE2827
:100130000612A30120088039A400A308031DA528E6
:10014000A408031DA5280611A628061506160310E7
:100150009F0DA00DA10A0319A20A912886108614EA
:10016000C12884011F3083054C284F2858285F2858
:1001700061281B089D001A089C005530A0009F00B4
:060180008128B82863008D
:02400E00F93F78
:00000001FF
;PIC16F84A
