:1000000000308A00762E0000FF00030E8301A1005D
:100010000A08A0008A010408A2007708A300780853
:10002000A4007908A5007A08A6007B08A70083131E
:1000300083128B1D1D280B1836288C308400801CE1
:1000400023288C183928220884002308F700240864
:10005000F8002508F9002608FA002708FB00200808
:100060008A00210E8300FF0E7F0E09008A110A12FA
:1000700043298A110A127F290A108A100A1182075D
:1000800028340C34013406340A108A100A1182070D
:10009000173400341D340034233400342934003440
:1000A0002C34003432340034383400343E340034DC
:1000B00054344134503445343134003454344134B0
:1000C000503445343234003454344134503445349F
:1000D00033340034433444340034543455344E34CF
:1000E00045345234003453344C344F345434313466
:1000F000003453344C344F345434323400344D349F
:1001000055345434453400340A108A100A118207D9
:100110005334523443343A34203425347334003465
:100120000A108A100A1182075234453443343A3493
:1001300020342534733400340A108A100A118207DF
:1001400041347534643469346F3400340A108A10D1
:100150000A11820750347234653441346D3470347E
:1001600000340A108A100A11820753344F34553470
:100170004E34443400340A108A100A118207453480
:100180004E34473449344E3445344534523449347E
:100190004E34473400340A108A100A11820756344C
:1001A0004F344C343A3420342534333464340034FE
:1001B0000A108A100A118207423441344C343A340E
:1001C00020344C34253432346434203452342534D1
:1001D0003234643400340A108A100A11820754340D
:1001E0005234453442343A3420344C342534323499
:1001F000643420346434423400340A148A100A11FE
:10020000820742344134533453343A3420344C342A
:1002100025343234643420346434423400340A14D3
:100220008A100A1182075334523443343A3400346A
:100230000A148A100A1182075234453443343A347E
:1002400000340A148A100A11820756344F344C3491
:100250003A3400340A148A100A11820742344134B5
:100260004C343A34003494138C11720893000230E9
:10027000941B41298C1D3A2900308316111B013033
:100280008312F8000034FF308316860083120608BC
:10029000F03A03197B29831686178312861B7B2964
:1002A000FF30EF0083161114111854290130831206
:1002B0006F07F100F2003321F701831691159119B0
:1002C0005F2977189112771C91161116111A662959
:1002D00083121308F8007808F0008316111511191D
:1002E0006F293F30F0057008F80078088312C000CD
:1002F0000130D1007B290B108A110A1223285908DA
:100300000A3C031D8529D9015614D90A8C108A117B
:100310000A122328FF308316850011308600003032
:100320008700880083128A110A129E2E653084008D
:10033000831300080319AA290130F800F701F70B0D
:100340009F29F80B9E294A30F700F70BA529A82909
:10035000800B9C290034650EF039F7000F3008053A
:100360007704880000000814B529081000348810AC
:10037000F03083168800831208150000081400006E
:100380000808080E0F39E5000810000008140000E6
:100390000808080E0F39E4000810003083168800A2
:1003A0008312650EF700F030F70577086404F80053
:1003B0007808E400E41BB829621C881062188814CD
:1003C0000000081100000810630EE4000F30E4057F
:1003D0006408E500AB2163080F39E400E500AB21B8
:1003E000003400308316880083128810081108102A
:1003F0000F30E50096210130DC005C08033C031C53
:10040000092A0330E500AB210530E5009621DC0A1E
:10041000FD290230E500AB21DC015C08033C031C34
:100420001A2A5C083C20DD00E2015D08E300B721E8
:10043000DC0A0D2A00345F0B1E2A212A4030E0001E
:10044000222AE00101305E02E00760088038E10006
:10045000E2016108E300B72100345D080C3A03199A
:10046000382A063A0319402A023A0319462A4B2A27
:10047000E2010130E300B7210230E5009621512A64
:100480000130DE000230DF001B22512AE201103071
:10049000E300B721512A0130E2005D08E300B721F3
:1004A000512A0034F1210230E50096210530D700B1
:1004B0000130D8005708DE005808DF001B22DC019D
:1004C0005C089C20DC0AF700DD002D2205305C0270
:1004D000031D602A0530D7000230D8005708DE001F
:1004E0005808DF001B22DC015C08A620DC0AF700AC
:1004F000DD002D2206305C02031D742A0830DC006A
:10050000FA30E5009621DC0B802A0C30DD002D222C
:100510000530D7000130D8005708DE005808DF004A
:100520001B22DC015C08B120DC0AF700DD002D2273
:1005300005305C02031D922A0330D7000230D80038
:100540005708DE005808DF001B22DC015C08BB20D6
:10055000DC0AF700DD002D220B305C02031DA62A09
:100560000830DC00FA30E5009621DC0BB22A0C30B2
:10057000DD002D220130D700D8005708DE005808D2
:10058000DF001B228A110A12A32E8A110A12E32EFF
:10059000831611141118CA2A8312A8018B1BA817DD
:1005A0008B135E08F2003321A81B8B17A8018B1B4D
:1005B000A8178B13F2013321A81B8B17A8018B1BE3
:1005C000A8178B136008F2003321A81B8B17831622
:1005D00011151119E92A02308312E400FA30E500FE
:1005E0009621E40BEE2A831611141118F52A8312B2
:1005F000A8018B1BA8178B135E08F2003321A81BE0
:100600008B17A8018B1BA8178B135F08F2003321EF
:10061000A81B8B17E1080319172BA8018B1BA81720
:100620008B136008F2003321A81B8B171F2BA80126
:100630008B1BA8178B13F2013321A81B8B17831672
:1006400011151119212B831200345A0884008313C9
:100650005B1883176C088000840A8001DA0A03198A
:10066000DB0A00345C080F39DD005C08013A03192D
:10067000492B033A0319892B013A0319C92B073A6D
:100680000319CD2B0C3A03190D2C043A03194D2CE8
:10069000502CD30A4030DE005308DF005408E0003D
:1006A0000130E100C8225308FA000030DE005E0A83
:1006B0004420FA005E084420DF007A08E000DB01F5
:1006C0004130DA00E10161088420E10AF700EC0022
:1006D000252305306102031D632B5F08840083130B
:1006E00060188317003000040319862BE301040807
:1006F000E2006310831B63140008EC0025236208EA
:100700008400831363188317840A722B0130D2008C
:10071000512CD3034030DE005308DF005408E000C2
:100720000130E100C8225308FA000030DE005E0A02
:100730004420FA005E084420DF007A08E000DB0174
:100740004130DA00E10161088420E10AF700EC00A1
:10075000252305306102031DA32B5F08840083134A
:1007600060188317003000040319C62BE301040846
:10077000E2006310831B63140008EC002523620869
:100780008400831363188317840AB22B0130D200CC
:10079000512C0130D200D506512CD40A4030DE0055
:1007A0005308DF005408E0000130E100C82254087B
:1007B000FA000030DE005E0A4420FA005E084420A1
:1007C000DF007A08E000DB014130DA00E101610876
:1007D0009020E10AF700EC00252305306102031D9B
:1007E000E72B5F0884008313601883170030000430
:1007F00003190A2CE3010408E2006310831B63144D
:100800000008EC0025236208840083136318831713
:10081000840AF62B0230D200512CD4034030DE0083
:100820005308DF005408E0000130E100C8225408FA
:10083000FA000030DE005E0A4420FA005E08442020
:10084000DF007A08E000DB014130DA00E1016108F5
:100850009020E10AF700EC00252305306102031D1A
:10086000272C5F088400831360188317003000046E
:1008700003194A2CE3010408E2006310831B63148C
:100880000008EC0025236208840083136318831793
:10089000840A362C0230D200512C0230D200512C66
:1008A000512C8A110A12E92EDC015C08033C031C5E
:1008B0007E2C5C0DF700F70DF70DF830F7051F08DB
:1008C000C73977049F000330F700F70B652C03103E
:1008D0005C0D303E840083131F151F196D2C1E08FC
:1008E000FA0083161E088000840A7A08800003300C
:1008F000F700F70B792C8312DC0A552C8A110A12A7
:10090000ED2E1030E900F701FA01E60CE50C031CAE
:100910008F2C6708F7070318FA0A6808FA07FA0C19
:10092000F70CF90CF80CE90B852C00346D08F80174
:100930006C0203189E2C6C08F700AA2CF7010830F3
:10094000EE00EC0DF70D6D0877020318F700F80DB7
:10095000EE0BA12C00342030671E3030E800660812
:10096000F700E61FBA2CF709F70A7708E6002D30E2
:10097000E800E7176608EC006430ED00962477087D
:10098000E60030307807E9006608EC000A30ED0038
:10099000962430307707EB0030307807EA0068089B
:1009A000F700E71DD52CE71F6711671AE22CE71F38
:1009B000FD2C6719FD2C7708E900E718FD2C770856
:1009C000EA00FD2C30306902031DFD2C7708E90098
:1009D0002030E800E71DF02C6711E714E71FE7104F
:1009E00030306A02031DFD2C7708EA002030E90050
:1009F000E71DF02CE710E71F6710671D022D680840
:100A0000EC002523E71C072D6908EC002523671C53
:100A10000C2D6A08EC0025236B08EC00252300341C
:100A2000DC013830303CF700FA010030031C0130A3
:100A3000FA0277080310FA01F90179087F30DE0025
:100A4000FC30DD005E08FA005D08DE08031D2C2D79
:100A50005D08053C0318632E03105C0D383EF8005A
:100A6000FA010318FA0A7A08DE0003105C0D303E22
:100A700084008313840A0008FA0084030008DF005E
:100A80007808840083135E188317840A7A0880002C
:100A900084035F0880005C08FC3E0318602E043E5F
:100AA000682E03105C0D303E84008313840A000816
:100AB000DE0084030008DD00E0015E0CDF00DF0CD7
:100AC0003F30DF056008E6005F08E500E8016430BC
:100AD000E70081247808E000DB014130DA00E10121
:100AE0006108CB20E10AF700EC0025230530610204
:100AF000031D702D6008E6001330E700AB24602E64
:100B000003105C0D303E84008313840A0008DE006D
:100B100084030008DD00E0015E0CDF00DF0C3F30E5
:100B2000DF056008E6005F08E500E8016430E700E3
:100B300081247908FA007808643CF7007908031CDE
:100B4000790FA42D0030A52D003CFA007708E000B5
:100B500003105C0D303E84008313840A0008E20019
:100B600084030008E100E401620CE300E30C3F3081
:100B7000E3056408E6006308E500E8016430E70087
:100B800081247808E400DB014130DA00E5016508E2
:100B9000D820E50AF700EC00252306306502031D86
:100BA000C72D6008E6001130E700AB242030EC00D0
:100BB00025235230EC0025236408E6001130E700BD
:100BC000AB24602E03105C0D303E84008313840A36
:100BD0000008DE0084030008DD0000305D02DF0055
:100BE0005E08E0000230031C0330E0020310E20163
:100BF000600CE1006208E6006108E500E8010C30E5
:100C0000E70081247808E200DB014130DA00E301EB
:100C10006308EB20E30AF700EC00252307306302AA
:100C2000031D082E6208E6001130E700AB242030D7
:100C3000EC0025236430EC0025234230EC00252312
:100C4000602E03105C0D303E84008313840A00087C
:100C5000DE0084030008DD0000305D02DF005E0876
:100C6000E0000230031C0330E0020310E201600CDC
:100C7000E1006208E6006108E500E8010C30E700E9
:100C800081247808E200DB014130DA00E3016308E7
:100C9000FD20E30AF700EC00252307306302031D63
:100CA000472E6208E6001130E700AB242030EC004C
:100CB00025236430EC0025234230EC002523602EF0
:100CC00003305C07D200DC0A112D8A110A12EE2EC5
:100CD0000A108A140A158207512D802DE22D212E2B
:100CE0008A110A12FF2E8A110A12082F8401831317
:100CF0001F308305A915290883168700831229163A
:100D00002908831687000930930028308312940045
:100D10008316941714131F149F141F159F11073067
:100D20009C00FF308312A900AA01AB015610D90123
:100D3000DA01DB018B15C0308B048A2983168113FD
:100D40008312F121522A0130DE00DF001B22DC0178
:100D50005C080F21DC0AF700DD002D2204305C0264
:100D6000031DA82E0130DE000230DF001B22DC0153
:100D70005C081821DC0AF700DD002D2204305C023B
:100D8000031DB82E0130DE000330DF001B22DC0122
:100D90005C082121DC0AF700DD002D2204305C0212
:100DA000031DC82E0130DE000430DF001B22DC01F1
:100DB0005C082A21DC0AF700DD002D2204305C02E9
:100DC000031DD82EC52AD1080319EA2E4008DC00DD
:100DD000322BD101561CEF2E542C102D5610D20858
:100DE0000319092F5208033C0318082F3108DD00AE
:100DF0003008DC003308DF003208DE00702E3108D6
:100E0000DD003008DC003708DF003608DE00732E16
:060E1000D201E32E630095
:02400E00723FFF
:00000001FF
;PIC16F877A
