S00B000054534C2E7372656326
S11300000C9466000C94A1000C94AB000C94B50005
S11300100C94BF000C94C9000C94D3000C94DD0024
S11300200C94E7000C94F1000C94FB000C94050173
S11300300C940F010C9419010C9423010C942D01C0
S11300400C9437010C9441010C944B010C947501F0
S11300500C947F010C9489010C9493010C949D01E0
S11300600C94A7010C94B1010C94BB010C94C50130
S11300700C94CF010C94D9010C94E3010C94290243
S11300800C9433020C943D020C944702001F0000B0
S113009000001F00001F101010101F00001F181870
S11300A018181F00001F1C1C1C1C1F00001F1E1EF4
S11300B01E1E1F00001F1F1F1F1F1F0003070F1FEF
S11300C00F070300181C1E1F1E1C180011241FBE3E
S11300D0CFEFD0E1DEBFCDBF11E0A0E0B1E0E6E3B9
S11300E0FEE000E00BBF02C007900D92A033B10701
S11300F0D9F721E0A0E3B1E001C01D92A339B20712
S1130100E1F70E9450030C94190796B1892B86B924
S113011086B186B967B9089597B1886F982397B95E
S1130120369A3699FECF84B125B190E0922B08958A
S1130130E2E3F1E08CE391E01192E817F907E1F7CB
S113014008951F920F920FB60F9211240F900FBEB5
S11301500F901F9018951F920F920FB60F921124B3
S11301600F900FBE0F901F9018951F920F920FB60D
S11301700F9211240F900FBE0F901F9018951F928D
S11301800F920FB60F9211240F900FBE0F901F9075
S113019018951F920F920FB60F9211240F900FBE55
S11301A00F901F9018951F920F920FB60F92112463
S11301B00F900FBE0F901F9018951F920F920FB6BD
S11301C00F9211240F900FBE0F901F9018951F923D
S11301D00F920FB60F9211240F900FBE0F901F9025
S11301E018951F920F920FB60F9211240F900FBE05
S11301F00F901F9018951F920F920FB60F92112413
S11302000F900FBE0F901F9018951F920F920FB66C
S11302100F9211240F900FBE0F901F9018951F92EC
S11302200F920FB60F9211240F900FBE0F901F90D4
S113023018951F920F920FB60F9211240F900FBEB4
S11302400F901F9018951F920F920FB60F921124C2
S11302500F900FBE0F901F9018951F920F920FB61C
S11302600F9211240F900FBE0F901F9018951F929C
S11302700F920FB60F9211240F900FBE0F901F9084
S113028018951F920F920FB60F9211240F900FBE64
S11302900F901F9018951F920F920FB60F92112472
S11302A00BB60F922F933F934F935F936F937F936C
S11302B08F939F93AF93BF93EF93FF930E94450453
S11302C00E94D003FF91EF91BF91AF919F918F91C5
S11302D07F916F915F914F913F912F910F900BBE42
S11302E00F900FBE0F901F9018951F920F920FB68C
S11302F00F9211240F900FBE0F901F9018951F920C
S11303000F920FB60F9211240F900FBE0F901F90F3
S113031018951F920F920FB60F9211240F900FBED3
S11303200F901F9018951F920F920FB60F921124E1
S11303300F900FBE0F901F9018951F920F920FB63B
S11303400F9211240F900FBE0F901F9018951F92BB
S11303500F920FB60F9211240F900FBE0F901F90A3
S113036018951F920F920FB60F9211240F900FBE83
S11303700F901F9018951F920F920FB60F92112491
S11303800F900FBE0F901F9018951F920F920FB6EB
S11303900F9211240F900FBE0F901F9018951F926B
S11303A00F920FB60F9211240F900FBE0F901F9053
S11303B018951F920F920FB60F9211240F900FBE33
S11303C00F901F9018951F920F920FB60F92112441
S11303D00BB60F922F933F934F935F936F937F933B
S11303E08F939F93AF93BF93CF93EF93FF930E9409
S11303F00504C82F0E94140480913101E82FF0E015
S1130400EE5CFE4FC0838F5FC13231F41092310134
S113041081E08093300109C08C3018F4809331015D
S113042004C0109231010E949800FF91EF91CF9186
S1130430BF91AF919F918F917F916F915F914F91F8
S11304403F912F910F900BBE0F900FBE0F901F90F6
S113045018951F920F920FB60F9211240F900FBE92
S11304600F901F9018951F920F920FB60F921124A0
S11304700F900FBE0F901F9018951F920F920FB6FA
S11304800F9211240F900FBE0F901F9018951F927A
S11304900F920FB60F9211240F900FBE0F901F9062
S11304A01895982F907F95BBA89AAA9AE3EFF1E04C
S11304B03197F1F700C00000AA98A898E3EFF1E0A3
S11304C03197F1F700C00000F0E18F9FC0011124C3
S11304D085BBA89AAA9A83EF91E00197F1F700C02F
S11304E00000AA98A898E3EFF1E03197F1F700C073
S11304F000000895982F907F95BBAA9AE3EFF1E04E
S11305003197F1F700C00000AA98E3EFF1E03197CA
S1130510F1F700C00000F0E18F9FC001112485BBFA
S1130520AA9A83EF91E00197F1F700C00000AA981E
S1130530E3EFF1E03197F1F700C00000089581E0A6
S11305400E947A0208950F931F93CF93DF93FC01C7
S113055001900020E9F731971E2F181B009761F0D6
S1130560112351F0082FC02FD92F89910E945102D5
S11305708C2F801B8117C8F3DF91CF911F910F91AE
S11305800895623031F0633031F0613029F4805CD9
S113059003C08C5E01C08C5A80680E947A02089560
S11305A0EF92FF920F931F93CF93DF938C01660F0B
S11305B0660F660F6064E62EC0E0D0E0F801EC0F31
S11305C0FD1FF4908C2F8E0D0E947A028F2D0E94B5
S11305D051022196C830D10589F7DF91CF911F913F
S11305E00F91FF90EF9008951F93CF93DF938BE4C7
S11305F09DE10197F1F700C0000015BA15BA84B364
S1130600806F84BB84B3876084BB80E385BBAA9A74
S113061083EF91E00197F1F700C00000AA9883EFFF
S113062091E00197F1F700C0000080E385BBAA9A2E
S113063083EF91E00197F1F700C00000AA9883EFDF
S113064091E00197F1F700C0000080E285BBAA9A0F
S113065083EF91E00197F1F700C00000AA9883EFBF
S113066091E00197F1F700C0000088E20E947A024D
S11306708CE00E947A02CCE8D0E060E011E0160F32
S1130680CE010E94D0022896183011F0612FF6CFC7
S1130690DF91CF911F9108958CE00E947A02089512
S11306A048E460EC80E80E9485000E94F4020E9405
S11306B09F020E944C0362E082E00E94C10288E42F
S11306C00E94510284E080933C0184E180933D01C7
S11306D048E966E084E190E00E940D0448E966E0A0
S11306E084E190E00E94C703789480E091E00E9446
S11306F01804912C06E011E0CDE7D1E0AC2EBD2E1C
S11307000F2EFFE1CF2EF1E0DF2EF02D0F2EF8E6B5
S1130710EF2EF1E0FF2EF02D80E00E948C009F93DD
S11307208F931F930F93DF93CF930E9449048A2DD5
S11307309B2D0E941804209130010F900F900F9070
S11307400F900F900F90222339F383E191E00E94E0
S1130750180493941F929F92DF92CF92FF92EF928C
S11307600E94490463E080E00E94C102C7010E9424
S1130770A302C7010E94D803109230010E9498007E
S11307800F900F900F900F900F900F90C5CF9093F4
S113079098008093990040939A0060939D00089577
S11307A0EBE9F0E0908195FFFDCF80939C000895E4
S11307B0EF92FF920F931F93CF93DF93FC01DC0121
S11307C00D900020E9F711977D01E81AF90A1E142B
S11307D01F04A4F48081882389F08F010F5F1F4FC9
S11307E0C0E0D0E005C0F80181918F01882331F089
S11307F00E94D0032196EC16FD06A9F7DF91CF9154
S11308001F910F91FF90EF900895EBE9F0E0808144
S11308108823ECF780919C0008959093900089B907
S11308204AB96093950008955D9BFECF8CB90895F5
S1130830EF92FF920F931F93CF93DF93FC01DC01A0
S11308400D900020E9F711977D01E81AF90A1E14AA
S11308501F04A4F48081882389F08F010F5F1F4F48
S1130860C0E0D0E005C0F80181918F01882331F008
S11308700E9414042196EC16FD06A9F7DF91CF918E
S11308801F910F91FF90EF9008955F9BFECF8CB165
S113089008950F931F93CF93DF93CDB7DEB72E97B1
S11308A00FB6F894DEBF0FBECDBF0D891E8986E05A
S11308B08C831A8309838FEF9FE79E838D83AE0118
S11308C0475E5F4F6F89788DCE0101960E94780450
S11308D0EF81F885E00FF11F10822E960FB6F89481
S11308E0DEBF0FBECDBFDF91CF911F910F91089551
S11308F02F923F924F925F926F927F928F929F922C
S1130900AF92BF92CF92DF92EF92FF920F931F9319
S1130910CF93DF93CDB7DEB72C970FB6F894DEBF35
S11309200FBECDBF7C016B018A01FC0117821682C8
S1130930838181FFBDC1CE0101964C01F7019381F2
S1130940F60193FD859193FF81916F01882309F44A
S1130950ABC1853239F493FD859193FF81916F0189
S1130960853229F4B70190E00E948906E7CF512C23
S1130970312C20E02032A0F48B3269F030F4803244
S113098059F0833269F420612CC08D3239F0803300
S113099039F4216026C02260246023C0286021C06D
S11309A027FD27C030ED380F3A3078F426FF06C013
S11309B0FAE05F9E300D1124532E13C08AE0389E56
S11309C0300D1124332E20620CC08E3221F426FD0A
S11309D06BC1206406C08C3611F4206802C08836CE
S11309E041F4F60193FD859193FF81916F0181118B
S11309F0C1CF982F9F7D9554933028F40C5F1F4FDF
S1130A00FFE3F9830DC0833631F0833771F083350A
S1130A1009F05BC022C0F801808189830E5F1F4FFB
S1130A2044244394512C540115C03801F2E06F0E54
S1130A30711CF801A080B18026FF03C0652D70E011
S1130A4002C06FEF7FEFC5012C870E947E062C0148
S1130A5083012C852F77222E17C03801F2E06F0E08
S1130A60711CF801A080B18026FF03C0652D70E0E1
S1130A7002C06FEF7FEFC5012C870E9473062C0123
S1130A802C852068222E830123FC1BC0832D90E03B
S1130A9048165906B0F4B70180E290E00E94890636
S1130AA03A94F4CFF50127FC859127FE81915F01EB
S1130AB0B70190E00E94890631103A94F1E04F1A90
S1130AC051084114510471F7E5C0843611F0893698
S1130AD039F5F80127FF07C0608171818281938114
S1130AE00C5F1F4F08C060817181882777FD809556
S1130AF0982F0E5F1F4F2F76B22E97FF09C0909547
S1130B008095709561957F4F8F4F9F4F2068B22ECF
S1130B102AE030E0A4010E94BB06A82EA81844C015
S1130B20853729F42F7EB22E2AE030E025C0F22F3B
S1130B30F97FBF2E8F36C1F018F4883579F0B4C030
S1130B40803719F0883721F0AFC02F2F2061B22EE3
S1130B50B4FE0DC08B2D8460B82E09C024FF0AC0DA
S1130B609F2F9660B92E06C028E030E005C020E132
S1130B7030E002C020E132E0F801B7FE07C0608136
S1130B807181828193810C5F1F4F06C060817181E6
S1130B9080E090E00E5F1F4FA4010E94BB06A82EC8
S1130BA0A818FB2DFF77BF2EB6FE0BC02B2D2E7F72
S1130BB0A51450F4B4FE0AC0B2FC08C02B2D2E7E3E
S1130BC005C07A2C2B2D03C07A2C01C0752C24FF70
S1130BD00DC0FE01EA0DF11D8081803311F4297EE0
S1130BE009C022FF06C07394739404C0822F8678D0
S1130BF009F0739423FD13C020FF06C05A2C73140C
S1130C0018F4530C5718732C731468F4B70180E26A
S1130C1090E02C870E94890673942C85F5CF731479
S1130C2010F4371801C0312C24FF12C0B70180E33F
S1130C3090E02C870E9489062C8522FF17C021FF93
S1130C4003C088E590E002C088E790E0B7010CC0DB
S1130C50822F867859F021FD02C080E201C08BE228
S1130C6027FD8DE2B70190E00E948906A51438F4AF
S1130C70B70180E390E00E9489065A94F7CFAA94C2
S1130C80F401EA0DF11D8081B70190E00E9489060C
S1130C90A110F5CF332009F451CEB70180E290E0E2
S1130CA00E9489063A94F6CFF7018681978102C0A3
S1130CB08FEF9FEF2C960FB6F894DEBF0FBECDBF1B
S1130CC0DF91CF911F910F91FF90EF90DF90CF9024
S1130CD0BF90AF909F908F907F906F905F904F9058
S1130CE03F902F900895FC010590615070400110D1
S1130CF0D8F7809590958E0F9F1F0895FC01615041
S1130D00704001900110D8F7809590958E0F9F1F29
S1130D1008950F931F93CF93DF93182F092FEB019F
S1130D208B8181FD03C08FEF9FEF20C082FF10C035
S1130D304E815F812C813D81421753077CF4E88109
S1130D40F9819F012F5F3F4F39832883108306C0A9
S1130D50E885F985812F0995892B29F72E813F8113
S1130D602F5F3F4F3F832E83812F902FDF91CF91B1
S1130D701F910F910895FA01AA27283051F12031CB
S1130D8081F1E8946F936E7F6E5F7F4F8F4F9F4F1B
S1130D90AF4FB1E03ED0B4E03CD0670F781F891F5D
S1130DA09A1FA11D680F791F8A1F911DA11D6A0F2B
S1130DB0711D811D911DA11D20D009F468943F91DE
S1130DC02AE0269F11243019305D3193DEF6CF01DD
S1130DD00895462F4770405D4193B3E00FD0C9F7A3
S1130DE0F6CF462F4F70405D4A3318F0495D31FD10
S1130DF04052419302D0A9F7EACFB4E0A695979563
S1130E00879577956795BA95C9F700976105710538
S1130E1008959B01AC010A2E069457954795379582
S1130E202795BA95C9F7620F731F841F951FA01DDC
S1090E300895F894FFCFC1
S1130E3648656C6C6F0056616C75652025346420BA
S1130E460A0D00476F74206D657373616765004E04
S1130E56204D53472052454349562025336400000C
S9030000FC
