:1000000000308A007E2B0000FF00030E8301A10058
:100010000A08A0008A010408A2007708A300780853
:10002000A4007908A5007A08A6007B08A70083131E
:1000300083128B1D1D280B1836288C308400801CE1
:1000400023288C183928220884002308F700240864
:10005000F8002508F9002608FA002708FB00200808
:100060008A00210E8300FF0E7F0E09008A110A12FA
:1000700060288A110A1266280A108A100A1182075B
:10008000483453344F3400340A108A100A1182075E
:100090005034723465342034563431342E34303494
:1000A00000340A108A100A118207573461347234FE
:1000B0006D3469346E346734203455347034003410
:1000C00045148B110B108A110A1223284908053C8C
:1000D000031D6C28C901B014C90A8C108A110A12B8
:1000E0002328EC308400831300080319852801308D
:1000F000F800F701F70B7A28F80B79284A30F70057
:10010000F70B80288328800B7728003494138C11F8
:1001100003171008031393000230941B96288C1DBC
:100120008F2800308316111B01308312F800003431
:100130008316111411189A280630F700F70B9E2821
:10014000000040308312031790000313862006300E
:10015000F700F70BA928000083166F088312031716
:100160009000031386200630F700F70BB528000037
:10017000831611151119BA280630F700F70BBE289F
:10018000000083120034301CCC2883166E0804381B
:100190000838EE00CE28831283166E156E08EF0025
:1001A0008312982004308316EE026E08EF0083124B
:1001B000982000348316EE018312C320103083167A
:1001C000EE008312C32002308316EC0083127120EC
:1001D0000034C8308316EC00831271208316EE01C0
:1001E0008312C32010308316EE008312C3208316BF
:1001F000EE018312C3208316EE018312C320103058
:100200008316EE008312C32030308316EE00831273
:10021000C32030308316EE008312C32030308316A3
:10022000EE008312C32020308316EE008312C32019
:1002300020308316EE008312C32080308316EE0038
:100240008312C3208316EE018312C320C0308316AD
:10025000EE008312C3208316EE018312C3206030A8
:100260008316EE008312C320DA208A110A12A72B0C
:1002700083161F1383121F139F1783169F17831252
:100280001F1483161F109F101F119F1183128A11B4
:100290000A12A82B2030F800063892007D30831611
:1002A00092008C1483128A110A12A92B8A110A1245
:1002B000AA2B83166D08013A831203196929033AA0
:1002C00003196C29013A03196F29073A0319722996
:1002D00075298030AF007829C030AF00782994307C
:1002E000AF007829D430AF0078298030AF0078296A
:1002F000013083166C028312AF072F08F039B1006A
:1003000031088316EE008312C3202F080F39B10085
:10031000B10EF030B10531088316EE008312C32010
:10032000003483166A080C3A83120319A4290D3A83
:100330000319A629033A0319AD29013A0319B5296E
:10034000073A0319BD29C529DA20DB2901308316B4
:10035000EC00ED0083125921DB2901308316EC00FB
:100360000230ED0083125921DB2901308316EC00A5
:100370000330ED0083125921DB2901308316EC0094
:100380000430ED0083125921DB2983166A08F03905
:10039000EB006B146B08EE008312C32083166A080F
:1003A0000F39EB00EB0EF030EB056B146B08EE0031
:1003B0008312C320DB29003401308316E800831246
:1003C000DA2007308316EC000130ED00831259214A
:1003D0008316E901690883123C2000380319F829C3
:1003E0008316E90AEA00831291218316EA2983120F
:1003F00005308316EC000230ED008312592183167C
:10040000E901690883124420003803190F2A831672
:10041000E90AEA00831291218316012A831204302B
:100420008316E900FA30EC00831271208316E90B81
:10043000122A8312DA2004308316EC000230ED0019
:10044000831259218316E90169088312512000386B
:100450000319322A8316E90AEA00831291218316CE
:10046000242A831201308316EC000330ED0083123E
:10047000592101308316E8006808083C031C572AFC
:100480006808EC000330ED008312592123308316F5
:10049000EA008312912102308316E900FA30EC0061
:1004A000831271208316E90B4E2AE80A3C2A831234
:1004B000DA208A110A12B02B8316E80111141118E0
:1004C0005F2A01306707E9008312031790000313C6
:1004D0008620F7018316911591196C2A77189112CD
:1004E000771C91161116111A732A83121308F8003B
:1004F00078088316E800111511197C2A6808F8009D
:10050000831200348316E801E7016708033C031CEB
:10051000192B670DF700F70DF70DF830F70583126B
:100520001F08C73977049F000630F700F70B962A9B
:1005300000008316E8016808093C031CD42A031054
:10054000670D323EF800FA010318FA0A7808E9004C
:100550007A08EA000310670D323E84008313840A90
:100560000008EC0084030008EB0083121F151F191C
:10057000B72A1E08FA0083161E086B07F8006C08DD
:1005800003186C0FFA077808ED007A08EE00690886
:10059000840083136A188317840A6E08800084031A
:1005A0006D088000E80A9B2A0310670D323E840024
:1005B0008313840A0008EE0084030008ED00831210
:1005C000031791010A309000F801F901F701FA01CF
:1005D0001108031DEE2A10080319102B1030831682
:1005E0000313EF000310ED0DEE0DF70DFA0D83125E
:1005F000031711087A02031DFF2A10087702031C53
:10060000082B1008F702031CFA031108FA0203145E
:10061000F80DF90D83160313EF0BF22A831203175B
:1006200078088000840A7908800083160313E70A9B
:10063000852A83128A110A12C02B8316E701E7016B
:100640006708033C031C7A2B0310670D323E8400BD
:100650008313840A0008E90084030008E8000310FB
:10066000670D083EF800FA010318FA0A7808323ECE
:10067000840083137A188317840A0008FA0084031D
:1006800000086802EA006908EB007A08031C7A0F88
:10069000EB026B08FA006A08EB08031D532B6A088B
:1006A0000A3C03185D2B423084008313F0300005B0
:1006B000013880008312421683160310670D083E2E
:1006C000F800FA010318FA0A7808323E840083130E
:1006D0007A188317840A8001840332308000031063
:1006E000670D323E84008313840A800184038001F5
:1006F000E70A202B83128A110A12C12B840183136B
:100700001F308305A8152808831687008312281632
:10071000280883168700093093002830831294003C
:100720008316941714131F149F141F159F1107305D
:100730009C00FF308312A800A901AA013014B10166
:10074000B010C9018316E60183124510E928382943
:100750004A295629301410308316E7008312DC2909
:100760008B1583160113C03083128B0472308316ED
:10077000E70083125C227808C400B01CC22B822AD6
:100780001D2BB010451472308316E70083125C22D3
:100790007808C40044088316E500831245108B15C1
:1007A000421EE72B8316E4016408033C031CE62B7E
:1007B00042308400831300080F39013C031DE42BF1
:1007C0006408013C0318E42BE40AD42B8312BD2BEC
:0207D0006300C4
:02400E00393F38
:00000001FF
;PIC16F877A
